{"abi":[{"type":"constructor","inputs":[{"name":"_owner","type":"address","internalType":"address"},{"name":"_privateTime","type":"uint256","internalType":"uint256"},{"name":"_publicTime","type":"uint256","internalType":"uint256"},{"name":"_expiryTime","type":"uint256","internalType":"uint256"},{"name":"_securityDeposit","type":"uint256","internalType":"uint256"}],"stateMutability":"nonpayable"},{"type":"function","name":"deployDestinationEscrow","inputs":[{"name":"orderComplement","type":"tuple","internalType":"struct IOTypes.OrderComplement","components":[{"name":"orderId","type":"bytes32","internalType":"bytes32"},{"name":"taker","type":"bytes32","internalType":"bytes32"},{"name":"receiver","type":"bytes32","internalType":"bytes32"},{"name":"destinationToken","type":"bytes32","internalType":"bytes32"},{"name":"fillAmount","type":"uint256","internalType":"uint256"},{"name":"timelock","type":"uint256","internalType":"uint256"},{"name":"hashlock","type":"bytes32","internalType":"bytes32"},{"name":"destinationChain","type":"uint8","internalType":"enum IOTypes.Chains"}]}],"outputs":[],"stateMutability":"payable"},{"type":"function","name":"deploySourceEscrow","inputs":[{"name":"order","type":"tuple","internalType":"struct IOTypes.Order","components":[{"name":"maker","type":"bytes32","internalType":"bytes32"},{"name":"receiver","type":"bytes32","internalType":"bytes32"},{"name":"sourceToken","type":"bytes32","internalType":"bytes32"},{"name":"destinationToken","type":"bytes32","internalType":"bytes32"},{"name":"sourceTokenAmount","type":"uint256","internalType":"uint256"},{"name":"destinationTokenAmount","type":"uint256","internalType":"uint256"},{"name":"sourceChain","type":"uint8","internalType":"enum IOTypes.Chains"},{"name":"destinationChain","type":"uint8","internalType":"enum IOTypes.Chains"},{"name":"allowPartialFill","type":"bool","internalType":"bool"},{"name":"hashlock","type":"bytes32","internalType":"bytes32"},{"name":"timelock","type":"uint256","internalType":"uint256"}]},{"name":"signature","type":"bytes","internalType":"bytes"}],"outputs":[],"stateMutability":"payable"},{"type":"function","name":"destinationEscrows","inputs":[{"name":"","type":"bytes32","internalType":"bytes32"},{"name":"","type":"uint256","internalType":"uint256"}],"outputs":[{"name":"taker","type":"bytes32","internalType":"bytes32"},{"name":"receiver","type":"bytes32","internalType":"bytes32"},{"name":"destinationToken","type":"bytes32","internalType":"bytes32"},{"name":"fillAmount","type":"uint256","internalType":"uint256"},{"name":"hashlock","type":"bytes32","internalType":"bytes32"},{"name":"timelock","type":"uint256","internalType":"uint256"},{"name":"status","type":"uint8","internalType":"enum IOTypes.escrowStatus"}],"stateMutability":"view"},{"type":"function","name":"expiry_withdrawal_time","inputs":[],"outputs":[{"name":"","type":"uint256","internalType":"uint256"}],"stateMutability":"view"},{"type":"function","name":"getDestinationEscrow","inputs":[{"name":"orderId","type":"bytes32","internalType":"bytes32"},{"name":"escrow_index","type":"uint256","internalType":"uint256"}],"outputs":[{"name":"","type":"tuple","internalType":"struct IOTypes.DestinationEscrow","components":[{"name":"taker","type":"bytes32","internalType":"bytes32"},{"name":"receiver","type":"bytes32","internalType":"bytes32"},{"name":"destinationToken","type":"bytes32","internalType":"bytes32"},{"name":"fillAmount","type":"uint256","internalType":"uint256"},{"name":"hashlock","type":"bytes32","internalType":"bytes32"},{"name":"timelock","type":"uint256","internalType":"uint256"},{"name":"status","type":"uint8","internalType":"enum IOTypes.escrowStatus"}]}],"stateMutability":"view"},{"type":"function","name":"getSourceEscrow","inputs":[{"name":"orderId","type":"bytes32","internalType":"bytes32"},{"name":"escrow_index","type":"uint256","internalType":"uint256"}],"outputs":[{"name":"","type":"tuple","internalType":"struct IOTypes.SourceEscrow","components":[{"name":"taker","type":"bytes32","internalType":"bytes32"},{"name":"fillAmount","type":"uint256","internalType":"uint256"},{"name":"status","type":"uint8","internalType":"enum IOTypes.escrowStatus"},{"name":"timelock","type":"uint256","internalType":"uint256"}]}],"stateMutability":"view"},{"type":"function","name":"orders","inputs":[{"name":"","type":"bytes32","internalType":"bytes32"}],"outputs":[{"name":"maker","type":"bytes32","internalType":"bytes32"},{"name":"receiver","type":"bytes32","internalType":"bytes32"},{"name":"sourceToken","type":"bytes32","internalType":"bytes32"},{"name":"destinationToken","type":"bytes32","internalType":"bytes32"},{"name":"sourceTokenAmount","type":"uint256","internalType":"uint256"},{"name":"destinationTokenAmount","type":"uint256","internalType":"uint256"},{"name":"sourceChain","type":"uint8","internalType":"enum IOTypes.Chains"},{"name":"destinationChain","type":"uint8","internalType":"enum IOTypes.Chains"},{"name":"allowPartialFill","type":"bool","internalType":"bool"},{"name":"hashlock","type":"bytes32","internalType":"bytes32"},{"name":"timelock","type":"uint256","internalType":"uint256"}],"stateMutability":"view"},{"type":"function","name":"owner","inputs":[],"outputs":[{"name":"","type":"address","internalType":"address"}],"stateMutability":"view"},{"type":"function","name":"private_withdrawal_time","inputs":[],"outputs":[{"name":"","type":"uint256","internalType":"uint256"}],"stateMutability":"view"},{"type":"function","name":"public_withdrawal_time","inputs":[],"outputs":[{"name":"","type":"uint256","internalType":"uint256"}],"stateMutability":"view"},{"type":"function","name":"security_deposit","inputs":[],"outputs":[{"name":"","type":"uint256","internalType":"uint256"}],"stateMutability":"view"},{"type":"function","name":"sourceEscrows","inputs":[{"name":"","type":"bytes32","internalType":"bytes32"},{"name":"","type":"uint256","internalType":"uint256"}],"outputs":[{"name":"taker","type":"bytes32","internalType":"bytes32"},{"name":"fillAmount","type":"uint256","internalType":"uint256"},{"name":"status","type":"uint8","internalType":"enum IOTypes.escrowStatus"},{"name":"timelock","type":"uint256","internalType":"uint256"}],"stateMutability":"view"},{"type":"function","name":"updateWithdrawalTimes","inputs":[{"name":"_privateTime","type":"uint256","internalType":"uint256"},{"name":"_publicTime","type":"uint256","internalType":"uint256"},{"name":"_expiryTime","type":"uint256","internalType":"uint256"}],"outputs":[],"stateMutability":"nonpayable"},{"type":"function","name":"withdrawDestination","inputs":[{"name":"orderId","type":"bytes32","internalType":"bytes32"},{"name":"secret","type":"bytes","internalType":"bytes"},{"name":"escrow_index","type":"uint256","internalType":"uint256"}],"outputs":[],"stateMutability":"nonpayable"},{"type":"function","name":"withdrawSource","inputs":[{"name":"orderId","type":"bytes32","internalType":"bytes32"},{"name":"secret","type":"bytes","internalType":"bytes"},{"name":"escrow_index","type":"uint256","internalType":"uint256"}],"outputs":[],"stateMutability":"nonpayable"},{"type":"event","name":"DestinationEscrowDeployed","inputs":[{"name":"orderId","type":"bytes32","indexed":true,"internalType":"bytes32"},{"name":"escrowIndex","type":"uint256","indexed":false,"internalType":"uint256"}],"anonymous":false},{"type":"event","name":"EscrowWithdrawn","inputs":[{"name":"escrowType","type":"string","indexed":false,"internalType":"string"},{"name":"orderId","type":"bytes32","indexed":false,"internalType":"bytes32"},{"name":"escrowIndex","type":"uint256","indexed":false,"internalType":"uint256"},{"name":"withdrawnBy","type":"address","indexed":false,"internalType":"address"}],"anonymous":false},{"type":"event","name":"OrderComplement","inputs":[{"name":"orderId","type":"bytes32","indexed":true,"internalType":"bytes32"},{"name":"taker","type":"bytes32","indexed":false,"internalType":"bytes32"},{"name":"receiver","type":"bytes32","indexed":false,"internalType":"bytes32"},{"name":"destinationToken","type":"bytes32","indexed":false,"internalType":"bytes32"},{"name":"fillAmount","type":"uint256","indexed":false,"internalType":"uint256"},{"name":"timelock","type":"uint256","indexed":false,"internalType":"uint256"},{"name":"hashlock","type":"bytes32","indexed":false,"internalType":"bytes32"},{"name":"destinationChain","type":"uint8","indexed":false,"internalType":"enum IOTypes.Chains"}],"anonymous":false},{"type":"event","name":"OrderCreated","inputs":[{"name":"orderId","type":"bytes32","indexed":true,"internalType":"bytes32"},{"name":"maker","type":"bytes32","indexed":false,"internalType":"bytes32"},{"name":"receiver","type":"bytes32","indexed":false,"internalType":"bytes32"},{"name":"sourceToken","type":"bytes32","indexed":false,"internalType":"bytes32"},{"name":"destinationToken","type":"bytes32","indexed":false,"internalType":"bytes32"},{"name":"destinationChain","type":"uint8","indexed":false,"internalType":"enum IOTypes.Chains"}],"anonymous":false},{"type":"event","name":"SourceEscrowDeployed","inputs":[{"name":"orderId","type":"bytes32","indexed":true,"internalType":"bytes32"},{"name":"escrowIndex","type":"uint256","indexed":false,"internalType":"uint256"}],"anonymous":false}],"bytecode":{"object":"0x60a060405234801562000010575f80fd5b50604051620031e0380380620031e0833981810160405281019062000036919062000137565b84848484848473ffffffffffffffffffffffffffffffffffffffff1660808173ffffffffffffffffffffffffffffffffffffffff1681525050835f8190555082600181905550816002819055508060038190555050505050505050505050620001bb565b5f80fd5b5f73ffffffffffffffffffffffffffffffffffffffff82169050919050565b5f620000c9826200009e565b9050919050565b620000db81620000bd565b8114620000e6575f80fd5b50565b5f81519050620000f981620000d0565b92915050565b5f819050919050565b6200011381620000ff565b81146200011e575f80fd5b50565b5f81519050620001318162000108565b92915050565b5f805f805f60a086880312156200015357620001526200009a565b5b5f6200016288828901620000e9565b9550506020620001758882890162000121565b9450506040620001888882890162000121565b93505060606200019b8882890162000121565b9250506080620001ae8882890162000121565b9150509295509295909350565b608051613005620001db5f395f81816110a1015261115301526130055ff3fe6080604052600436106100e7575f3560e01c806373137e9d11610089578063a77d1b1611610058578063a77d1b16146102d9578063c926250314610315578063e70d00b214610331578063ed8b7c4d1461036d576100e7565b806373137e9d14610215578063740d682f1461023f5780638da5cb5b146102695780639c3f1e9014610293576100e7565b80634f11cc16116100c55780634f11cc1614610159578063584fb59a1461019b5780636bf209c5146101c35780636d265722146101ed576100e7565b806312aba5f3146100eb5780632b7430cf146101135780634c94a0d41461012f575b5f80fd5b3480156100f6575f80fd5b50610111600480360381019061010c919061195b565b6103ac565b005b61012d600480360381019061012891906119ef565b6107bb565b005b34801561013a575f80fd5b50610143610c02565b6040516101509190611a5d565b60405180910390f35b348015610164575f80fd5b5061017f600480360381019061017a9190611a76565b610c08565b6040516101929796959493929190611b36565b60405180910390f35b3480156101a6575f80fd5b506101c160048036038101906101bc919061195b565b610c6c565b005b3480156101ce575f80fd5b506101d7611099565b6040516101e49190611a5d565b60405180910390f35b3480156101f8575f80fd5b50610213600480360381019061020e9190611ba3565b61109f565b005b348015610220575f80fd5b50610229611146565b6040516102369190611a5d565b60405180910390f35b34801561024a575f80fd5b5061025361114c565b6040516102609190611a5d565b60405180910390f35b348015610274575f80fd5b5061027d611151565b60405161028a9190611c32565b60405180910390f35b34801561029e575f80fd5b506102b960048036038101906102b49190611c4b565b611175565b6040516102d09b9a99989796959493929190611cd6565b60405180910390f35b3480156102e4575f80fd5b506102ff60048036038101906102fa9190611a76565b6111f1565b60405161030c9190611e38565b60405180910390f35b61032f600480360381019061032a9190611e70565b611306565b005b34801561033c575f80fd5b5061035760048036038101906103529190611a76565b611590565b6040516103649190611eef565b60405180910390f35b348015610378575f80fd5b50610393600480360381019061038e9190611a76565b611687565b6040516103a39493929190611f08565b60405180910390f35b60065f8581526020019081526020015f20805490508110610402576040517f08c379a00000000000000000000000000000000000000000000000000000000081526004016103f990611fa5565b60405180910390fd5b5f60065f8681526020019081526020015f20828154811061042657610425611fc3565b5b905f5260205f20906007020190506001600281111561044857610447611ac3565b5b816006015f9054906101000a900460ff16600281111561046b5761046a611ac3565b5b146104ab576040517f08c379a00000000000000000000000000000000000000000000000000000000081526004016104a29061203a565b60405180910390fd5b83836040516104bb929190612094565b6040518091039020816004015414610508576040517f08c379a00000000000000000000000000000000000000000000000000000000081526004016104ff906120f6565b60405180910390fd5b5f425f54836005015461051b9190612141565b101590505f425f5484600501546105329190612141565b1090505f61054384600101546116d9565b73ffffffffffffffffffffffffffffffffffffffff163373ffffffffffffffffffffffffffffffffffffffff1614905082801561057d5750805b806105855750815b6105c4576040517f08c379a00000000000000000000000000000000000000000000000000000000081526004016105bb906121be565b60405180910390fd5b5f6105d285600201546116d9565b73ffffffffffffffffffffffffffffffffffffffff1663a9059cbb6105fa87600101546116d9565b87600301546040518363ffffffff1660e01b815260040161061c9291906121dc565b6020604051808303815f875af1158015610638573d5f803e3d5ffd5b505050506040513d601f19601f8201168201806040525081019061065c919061222d565b90508061069e576040517f08c379a0000000000000000000000000000000000000000000000000000000008152600401610695906122a2565b60405180910390fd5b5f3373ffffffffffffffffffffffffffffffffffffffff166003546040516106c5906122e3565b5f6040518083038185875af1925050503d805f81146106ff576040519150601f19603f3d011682016040523d82523d5f602084013e610704565b606091505b5050905080610748576040517f08c379a000000000000000000000000000000000000000000000000000000000815260040161073f90612341565b60405180910390fd5b6002866006015f6101000a81548160ff0219169083600281111561076f5761076e611ac3565b5b02179055507f46ef90149130749a92a3830b0d3743eb7aa9ff52c4c66e141b02d283c181f0ac8a88336040516107a7939291906123a9565b60405180910390a150505050505050505050565b600354341015610800576040517f08c379a00000000000000000000000000000000000000000000000000000000081526004016107f79061243b565b60405180910390fd5b5f83604051602001610812919061263d565b6040516020818303038152906040528051906020012090505f6108788285858080601f0160208091040260200160405190810160405280939291908181526020018383808284375f81840152601f19601f820116905080830192505050505050506116e4565b9050610886855f01356116d9565b73ffffffffffffffffffffffffffffffffffffffff168173ffffffffffffffffffffffffffffffffffffffff16146108f3576040517f08c379a00000000000000000000000000000000000000000000000000000000081526004016108ea906126a1565b60405180910390fd5b5f61090186604001356116d9565b73ffffffffffffffffffffffffffffffffffffffff166323b872dd610928885f01356116d9565b3089608001356040518463ffffffff1660e01b815260040161094c939291906126bf565b6020604051808303815f875af1158015610968573d5f803e3d5ffd5b505050506040513d601f19601f8201168201806040525081019061098c919061222d565b9050806109ce576040517f08c379a00000000000000000000000000000000000000000000000000000000081526004016109c590612764565b60405180910390fd5b8560045f8581526020019081526020015f2081816109ec9190612b56565b9050505f6040518060800160405280610a1a3373ffffffffffffffffffffffffffffffffffffffff16611779565b8152602001886080013581526020015f6002811115610a3c57610a3b611ac3565b5b8152602001886101400135815250905060055f8581526020019081526020015f2081908060018154018082558091505060019003905f5260205f2090600402015f909190919091505f820151815f0155602082015181600101556040820151816002015f6101000a81548160ff02191690836002811115610ac057610abf611ac3565b5b0217905550606082015181600301555050837fc5b4f53281412d2f16ad2e3008fdf200a66b087efecfb303aaef23c6775b2528885f013589602001358a604001358b606001358c60e0016020810190610b199190612b64565b604051610b2a959493929190612b8f565b60405180910390a2837f3dbb7de611a00efda71fd352727106687892de058cbebc7182ec05c09b7548d9600160055f8881526020019081526020015f2080549050610b759190612be0565b604051610b829190611a5d565b60405180910390a2837fb7b4462d33fbaca50bbb32e34477a4145b678d1cacd3479e7f4920c927c06d29825f015189602001358a6060013585602001518c61014001358d61012001358e60e0016020810190610bde9190612b64565b604051610bf19796959493929190612c13565b60405180910390a250505050505050565b60035481565b6006602052815f5260405f208181548110610c21575f80fd5b905f5260205f2090600702015f9150915050805f015490806001015490806002015490806003015490806004015490806005015490806006015f9054906101000a900460ff16905087565b60055f8581526020019081526020015f20805490508110610cc2576040517f08c379a0000000000000000000000000000000000000000000000000000000008152600401610cb990611fa5565b60405180910390fd5b5f60055f8681526020019081526020015f208281548110610ce657610ce5611fc3565b5b905f5260205f209060040201905060016002811115610d0857610d07611ac3565b5b816002015f9054906101000a900460ff166002811115610d2b57610d2a611ac3565b5b14610d6b576040517f08c379a0000000000000000000000000000000000000000000000000000000008152600401610d629061203a565b60405180910390fd5b8383604051610d7b929190612094565b604051809103902060045f8781526020019081526020015f206007015414610dd8576040517f08c379a0000000000000000000000000000000000000000000000000000000008152600401610dcf906120f6565b60405180910390fd5b5f425f548360030154610deb9190612141565b101590505f425f548460030154610e029190612141565b1090505f610e12845f01546116d9565b73ffffffffffffffffffffffffffffffffffffffff163373ffffffffffffffffffffffffffffffffffffffff16149050828015610e4c5750805b80610e545750815b610e93576040517f08c379a0000000000000000000000000000000000000000000000000000000008152600401610e8a906121be565b60405180910390fd5b5f610eb160045f8b81526020019081526020015f20600201546116d9565b73ffffffffffffffffffffffffffffffffffffffff1663a9059cbb610ed8875f01546116d9565b87600101546040518363ffffffff1660e01b8152600401610efa9291906121dc565b6020604051808303815f875af1158015610f16573d5f803e3d5ffd5b505050506040513d601f19601f82011682018060405250810190610f3a919061222d565b905080610f7c576040517f08c379a0000000000000000000000000000000000000000000000000000000008152600401610f7390612cca565b60405180910390fd5b5f3373ffffffffffffffffffffffffffffffffffffffff16600354604051610fa3906122e3565b5f6040518083038185875af1925050503d805f8114610fdd576040519150601f19603f3d011682016040523d82523d5f602084013e610fe2565b606091505b5050905080611026576040517f08c379a000000000000000000000000000000000000000000000000000000000815260040161101d90612341565b60405180910390fd5b6002866002015f6101000a81548160ff0219169083600281111561104d5761104c611ac3565b5b02179055507f46ef90149130749a92a3830b0d3743eb7aa9ff52c4c66e141b02d283c181f0ac8a883360405161108593929190612d32565b60405180910390a150505050505050505050565b60015481565b7f000000000000000000000000000000000000000000000000000000000000000073ffffffffffffffffffffffffffffffffffffffff163373ffffffffffffffffffffffffffffffffffffffff161461112d576040517f08c379a000000000000000000000000000000000000000000000000000000000815260040161112490612dc4565b60405180910390fd5b825f819055508160018190555080600281905550505050565b60025481565b5f5481565b7f000000000000000000000000000000000000000000000000000000000000000081565b6004602052805f5260405f205f91509050805f015490806001015490806002015490806003015490806004015490806005015490806006015f9054906101000a900460ff16908060060160019054906101000a900460ff16908060060160029054906101000a900460ff1690806007015490806008015490508b565b6111f96117ff565b60065f8481526020019081526020015f2080549050821061124f576040517f08c379a000000000000000000000000000000000000000000000000000000000815260040161124690611fa5565b60405180910390fd5b60065f8481526020019081526020015f20828154811061127257611271611fc3565b5b905f5260205f2090600702016040518060e00160405290815f82015481526020016001820154815260200160028201548152602001600382015481526020016004820154815260200160058201548152602001600682015f9054906101000a900460ff1660028111156112e8576112e7611ac3565b5b60028111156112fa576112f9611ac3565b5b81525050905092915050565b60035434101561134b576040517f08c379a00000000000000000000000000000000000000000000000000000000081526004016113429061243b565b60405180910390fd5b5f61135982606001356116d9565b73ffffffffffffffffffffffffffffffffffffffff166323b872dd61138184602001356116d9565b3085608001356040518463ffffffff1660e01b81526004016113a5939291906126bf565b6020604051808303815f875af11580156113c1573d5f803e3d5ffd5b505050506040513d601f19601f820116820180604052508101906113e5919061222d565b905080611427576040517f08c379a000000000000000000000000000000000000000000000000000000000815260040161141e90612e52565b60405180910390fd5b5f6040518060e00160405280846020013581526020018460400135815260200184606001358152602001846080013581526020018460c0013581526020018460a0013581526020015f600281111561148257611481611ac3565b5b815250905060065f845f013581526020019081526020015f2081908060018154018082558091505060019003905f5260205f2090600702015f909190919091505f820151815f01556020820151816001015560408201518160020155606082015181600301556080820151816004015560a0820151816005015560c0820151816006015f6101000a81548160ff0219169083600281111561152657611525611ac3565b5b02179055505050825f01357f7607f826aa40970a1ba6e157a1cf1504f0e17d45a7e980032a99834860f58b7b600160065f875f013581526020019081526020015f20805490506115769190612be0565b6040516115839190611a5d565b60405180910390a2505050565b611598611853565b60055f8481526020019081526020015f208054905082106115ee576040517f08c379a00000000000000000000000000000000000000000000000000000000081526004016115e590611fa5565b60405180910390fd5b60055f8481526020019081526020015f20828154811061161157611610611fc3565b5b905f5260205f2090600402016040518060800160405290815f820154815260200160018201548152602001600282015f9054906101000a900460ff16600281111561165f5761165e611ac3565b5b600281111561167157611670611ac3565b5b8152602001600382015481525050905092915050565b6005602052815f5260405f2081815481106116a0575f80fd5b905f5260205f2090600402015f9150915050805f015490806001015490806002015f9054906101000a900460ff16908060030154905084565b5f815f1c9050919050565b5f80836040516020016116f79190612ee4565b6040516020818303038152906040528051906020012090505f805f61171b8661179a565b9250925092506001848285856040515f81526020016040526040516117439493929190612f24565b6020604051602081039080840390855afa158015611763573d5f803e3d5ffd5b5050506020604051035194505050505092915050565b5f8173ffffffffffffffffffffffffffffffffffffffff165f1b9050919050565b5f805f60418451146117e1576040517f08c379a00000000000000000000000000000000000000000000000000000000081526004016117d890612fb1565b60405180910390fd5b602084015192506040840151915060608401515f1a90509193909250565b6040518060e001604052805f80191681526020015f80191681526020015f80191681526020015f81526020015f80191681526020015f81526020015f600281111561184d5761184c611ac3565b5b81525090565b60405180608001604052805f80191681526020015f81526020015f60028111156118805761187f611ac3565b5b81526020015f81525090565b5f80fd5b5f80fd5b5f819050919050565b6118a681611894565b81146118b0575f80fd5b50565b5f813590506118c18161189d565b92915050565b5f80fd5b5f80fd5b5f80fd5b5f8083601f8401126118e8576118e76118c7565b5b8235905067ffffffffffffffff811115611905576119046118cb565b5b602083019150836001820283011115611921576119206118cf565b5b9250929050565b5f819050919050565b61193a81611928565b8114611944575f80fd5b50565b5f8135905061195581611931565b92915050565b5f805f80606085870312156119735761197261188c565b5b5f611980878288016118b3565b945050602085013567ffffffffffffffff8111156119a1576119a0611890565b5b6119ad878288016118d3565b935093505060406119c087828801611947565b91505092959194509250565b5f80fd5b5f61016082840312156119e6576119e56119cc565b5b81905092915050565b5f805f6101808486031215611a0757611a0661188c565b5b5f611a14868287016119d0565b93505061016084013567ffffffffffffffff811115611a3657611a35611890565b5b611a42868287016118d3565b92509250509250925092565b611a5781611928565b82525050565b5f602082019050611a705f830184611a4e565b92915050565b5f8060408385031215611a8c57611a8b61188c565b5b5f611a99858286016118b3565b9250506020611aaa85828601611947565b9150509250929050565b611abd81611894565b82525050565b7f4e487b71000000000000000000000000000000000000000000000000000000005f52602160045260245ffd5b60038110611b0157611b00611ac3565b5b50565b5f819050611b1182611af0565b919050565b5f611b2082611b04565b9050919050565b611b3081611b16565b82525050565b5f60e082019050611b495f83018a611ab4565b611b566020830189611ab4565b611b636040830188611ab4565b611b706060830187611a4e565b611b7d6080830186611ab4565b611b8a60a0830185611a4e565b611b9760c0830184611b27565b98975050505050505050565b5f805f60608486031215611bba57611bb961188c565b5b5f611bc786828701611947565b9350506020611bd886828701611947565b9250506040611be986828701611947565b9150509250925092565b5f73ffffffffffffffffffffffffffffffffffffffff82169050919050565b5f611c1c82611bf3565b9050919050565b611c2c81611c12565b82525050565b5f602082019050611c455f830184611c23565b92915050565b5f60208284031215611c6057611c5f61188c565b5b5f611c6d848285016118b3565b91505092915050565b60028110611c8757611c86611ac3565b5b50565b5f819050611c9782611c76565b919050565b5f611ca682611c8a565b9050919050565b611cb681611c9c565b82525050565b5f8115159050919050565b611cd081611cbc565b82525050565b5f61016082019050611cea5f83018e611ab4565b611cf7602083018d611ab4565b611d04604083018c611ab4565b611d11606083018b611ab4565b611d1e608083018a611a4e565b611d2b60a0830189611a4e565b611d3860c0830188611cad565b611d4560e0830187611cad565b611d53610100830186611cc7565b611d61610120830185611ab4565b611d6f610140830184611a4e565b9c9b505050505050505050505050565b611d8881611894565b82525050565b611d9781611928565b82525050565b611da681611b16565b82525050565b60e082015f820151611dc05f850182611d7f565b506020820151611dd36020850182611d7f565b506040820151611de66040850182611d7f565b506060820151611df96060850182611d8e565b506080820151611e0c6080850182611d7f565b5060a0820151611e1f60a0850182611d8e565b5060c0820151611e3260c0850182611d9d565b50505050565b5f60e082019050611e4b5f830184611dac565b92915050565b5f6101008284031215611e6757611e666119cc565b5b81905092915050565b5f6101008284031215611e8657611e8561188c565b5b5f611e9384828501611e51565b91505092915050565b608082015f820151611eb05f850182611d7f565b506020820151611ec36020850182611d8e565b506040820151611ed66040850182611d9d565b506060820151611ee96060850182611d8e565b50505050565b5f608082019050611f025f830184611e9c565b92915050565b5f608082019050611f1b5f830187611ab4565b611f286020830186611a4e565b611f356040830185611b27565b611f426060830184611a4e565b95945050505050565b5f82825260208201905092915050565b7f457363726f77206e6f7420666f756e642e0000000000000000000000000000005f82015250565b5f611f8f601183611f4b565b9150611f9a82611f5b565b602082019050919050565b5f6020820190508181035f830152611fbc81611f83565b9050919050565b7f4e487b71000000000000000000000000000000000000000000000000000000005f52603260045260245ffd5b7f4e6f7420576974686472617761626c65000000000000000000000000000000005f82015250565b5f612024601083611f4b565b915061202f82611ff0565b602082019050919050565b5f6020820190508181035f83015261205181612018565b9050919050565b5f81905092915050565b828183375f83830152505050565b5f61207b8385612058565b9350612088838584612062565b82840190509392505050565b5f6120a0828486612070565b91508190509392505050565b7f57726f6e672053656372657400000000000000000000000000000000000000005f82015250565b5f6120e0600c83611f4b565b91506120eb826120ac565b602082019050919050565b5f6020820190508181035f83015261210d816120d4565b9050919050565b7f4e487b71000000000000000000000000000000000000000000000000000000005f52601160045260245ffd5b5f61214b82611928565b915061215683611928565b925082820190508082111561216e5761216d612114565b5b92915050565b7f4e6f7420616c6c6f7765640000000000000000000000000000000000000000005f82015250565b5f6121a8600b83611f4b565b91506121b382612174565b602082019050919050565b5f6020820190508181035f8301526121d58161219c565b9050919050565b5f6040820190506121ef5f830185611c23565b6121fc6020830184611a4e565b9392505050565b61220c81611cbc565b8114612216575f80fd5b50565b5f8151905061222781612203565b92915050565b5f602082840312156122425761224161188c565b5b5f61224f84828501612219565b91505092915050565b7f5472616e7366657220746f207265636569766572206661696c656400000000005f82015250565b5f61228c601b83611f4b565b915061229782612258565b602082019050919050565b5f6020820190508181035f8301526122b981612280565b9050919050565b50565b5f6122ce5f83612058565b91506122d9826122c0565b5f82019050919050565b5f6122ed826122c3565b9150819050919050565b7f5365637572697479206465706f73697420726566756e64206661696c656400005f82015250565b5f61232b601e83611f4b565b9150612336826122f7565b602082019050919050565b5f6020820190508181035f8301526123588161231f565b9050919050565b7f44455354494e4154494f4e0000000000000000000000000000000000000000005f82015250565b5f612393600b83611f4b565b915061239e8261235f565b602082019050919050565b5f6080820190508181035f8301526123c081612387565b90506123cf6020830186611ab4565b6123dc6040830185611a4e565b6123e96060830184611c23565b949350505050565b7f5365637572697479206465706f736974206e6f7420656e6f75676800000000005f82015250565b5f612425601b83611f4b565b9150612430826123f1565b602082019050919050565b5f6020820190508181035f83015261245281612419565b9050919050565b5f61246760208401846118b3565b905092915050565b5f61247d6020840184611947565b905092915050565b60028110612491575f80fd5b50565b5f813590506124a281612485565b92915050565b5f6124b66020840184612494565b905092915050565b6124c781611c9c565b82525050565b5f813590506124db81612203565b92915050565b5f6124ef60208401846124cd565b905092915050565b61250081611cbc565b82525050565b61016082016125175f830183612459565b6125235f850182611d7f565b506125316020830183612459565b61253e6020850182611d7f565b5061254c6040830183612459565b6125596040850182611d7f565b506125676060830183612459565b6125746060850182611d7f565b50612582608083018361246f565b61258f6080850182611d8e565b5061259d60a083018361246f565b6125aa60a0850182611d8e565b506125b860c08301836124a8565b6125c560c08501826124be565b506125d360e08301836124a8565b6125e060e08501826124be565b506125ef6101008301836124e1565b6125fd6101008501826124f7565b5061260c610120830183612459565b61261a610120850182611d7f565b5061262961014083018361246f565b612637610140850182611d8e565b50505050565b5f610160820190506126515f830184612506565b92915050565b7f496e76616c6964207369676e61747572650000000000000000000000000000005f82015250565b5f61268b601183611f4b565b915061269682612657565b602082019050919050565b5f6020820190508181035f8301526126b88161267f565b9050919050565b5f6060820190506126d25f830186611c23565b6126df6020830185611c23565b6126ec6040830184611a4e565b949350505050565b7f4d616b6572206d75737420617070726f766520746f6b656e7320746f204573635f8201527f726f77466163746f727900000000000000000000000000000000000000000000602082015250565b5f61274e602a83611f4b565b9150612759826126f4565b604082019050919050565b5f6020820190508181035f83015261277b81612742565b9050919050565b5f813561278e8161189d565b80915050919050565b5f815f1b9050919050565b5f7fffffffffffffffffffffffffffffffffffffffffffffffffffffffffffffffff6127cd84612797565b9350801983169250808416831791505092915050565b5f6127ed82611894565b9050919050565b5f815f1c9050919050565b5f612809826127f4565b9050919050565b612819826127e3565b61282c612825826127ff565b83546127a2565b8255505050565b5f813561283f81611931565b80915050919050565b5f819050919050565b5f61286b61286661286184611928565b612848565b611928565b9050919050565b5f819050919050565b61288482612851565b61289761289082612872565b83546127a2565b8255505050565b5f81356128aa81612485565b80915050919050565b5f60ff6128bf84612797565b9350801983169250808416831791505092915050565b5f6128df82611c8a565b9050919050565b5f819050919050565b6128f8826128d5565b61290b612904826128e6565b83546128b3565b8255505050565b5f8160081b9050919050565b5f61ff0061292b84612912565b9350801983169250808416831791505092915050565b61294a826128d5565b61295d612956826128e6565b835461291e565b8255505050565b5f813561297081612203565b80915050919050565b5f8160101b9050919050565b5f62ff000061299384612979565b9350801983169250808416831791505092915050565b5f6129b382611cbc565b9050919050565b5f819050919050565b6129cc826129a9565b6129df6129d8826129ba565b8354612985565b8255505050565b5f81015f8301806129f681612782565b9050612a028184612810565b505050600181016020830180612a1781612782565b9050612a238184612810565b505050600281016040830180612a3881612782565b9050612a448184612810565b505050600381016060830180612a5981612782565b9050612a658184612810565b505050600481016080830180612a7a81612833565b9050612a86818461287b565b5050506005810160a0830180612a9b81612833565b9050612aa7818461287b565b5050506006810160c0830180612abc8161289e565b9050612ac881846128ef565b5050506006810160e0830180612add8161289e565b9050612ae98184612941565b50505060068101610100830180612aff81612964565b9050612b0b81846129c3565b50505060078101610120830180612b2181612782565b9050612b2d8184612810565b50505060088101610140830180612b4381612833565b9050612b4f818461287b565b5050505050565b612b6082826129e6565b5050565b5f60208284031215612b7957612b7861188c565b5b5f612b8684828501612494565b91505092915050565b5f60a082019050612ba25f830188611ab4565b612baf6020830187611ab4565b612bbc6040830186611ab4565b612bc96060830185611ab4565b612bd66080830184611cad565b9695505050505050565b5f612bea82611928565b9150612bf583611928565b9250828203905081811115612c0d57612c0c612114565b5b92915050565b5f60e082019050612c265f83018a611ab4565b612c336020830189611ab4565b612c406040830188611ab4565b612c4d6060830187611a4e565b612c5a6080830186611a4e565b612c6760a0830185611ab4565b612c7460c0830184611cad565b98975050505050505050565b7f5472616e7366657220746f2074616b6572206661696c656400000000000000005f82015250565b5f612cb4601883611f4b565b9150612cbf82612c80565b602082019050919050565b5f6020820190508181035f830152612ce181612ca8565b9050919050565b7f534f5552434500000000000000000000000000000000000000000000000000005f82015250565b5f612d1c600683611f4b565b9150612d2782612ce8565b602082019050919050565b5f6080820190508181035f830152612d4981612d10565b9050612d586020830186611ab4565b612d656040830185611a4e565b612d726060830184611c23565b949350505050565b7f4e6f7420746865206f776e6572000000000000000000000000000000000000005f82015250565b5f612dae600d83611f4b565b9150612db982612d7a565b602082019050919050565b5f6020820190508181035f830152612ddb81612da2565b9050919050565b7f54616b6572206d75737420617070726f766520746f6b656e7320746f204573635f8201527f726f77466163746f727900000000000000000000000000000000000000000000602082015250565b5f612e3c602a83611f4b565b9150612e4782612de2565b604082019050919050565b5f6020820190508181035f830152612e6981612e30565b9050919050565b5f81905092915050565b7f19457468657265756d205369676e6564204d6573736167653a0a3332000000005f82015250565b5f612eae601c83612e70565b9150612eb982612e7a565b601c82019050919050565b5f819050919050565b612ede612ed982611894565b612ec4565b82525050565b5f612eee82612ea2565b9150612efa8284612ecd565b60208201915081905092915050565b5f60ff82169050919050565b612f1e81612f09565b82525050565b5f608082019050612f375f830187611ab4565b612f446020830186612f15565b612f516040830185611ab4565b612f5e6060830184611ab4565b95945050505050565b7f496e76616c6964207369676e6174757265206c656e67746800000000000000005f82015250565b5f612f9b601883611f4b565b9150612fa682612f67565b602082019050919050565b5f6020820190508181035f830152612fc881612f8f565b905091905056fea2646970667358221220cdd30b15a95236808c68175616c49db6d8a2aa51bc32f39441711461d241c52764736f6c63430008170033","linkReferences":{}},"methodIdentifiers":{"deployDestinationEscrow((bytes32,bytes32,bytes32,bytes32,uint256,uint256,bytes32,uint8))":"c9262503","deploySourceEscrow((bytes32,bytes32,bytes32,bytes32,uint256,uint256,uint8,uint8,bool,bytes32,uint256),bytes)":"2b7430cf","destinationEscrows(bytes32,uint256)":"4f11cc16","expiry_withdrawal_time()":"73137e9d","getDestinationEscrow(bytes32,uint256)":"a77d1b16","getSourceEscrow(bytes32,uint256)":"e70d00b2","orders(bytes32)":"9c3f1e90","owner()":"8da5cb5b","private_withdrawal_time()":"740d682f","public_withdrawal_time()":"6bf209c5","security_deposit()":"4c94a0d4","sourceEscrows(bytes32,uint256)":"ed8b7c4d","updateWithdrawalTimes(uint256,uint256,uint256)":"6d265722","withdrawDestination(bytes32,bytes,uint256)":"12aba5f3","withdrawSource(bytes32,bytes,uint256)":"584fb59a"},"id":23}